{
  "contractName": "flipcoin",
  "abi": [
    {
      "inputs": [],
      "payable": false,
      "stateMutability": "nonpayable",
      "type": "constructor"
    },
    {
      "anonymous": false,
      "inputs": [
        {
          "indexed": false,
          "internalType": "string",
          "name": "losermessage",
          "type": "string"
        }
      ],
      "name": "loser",
      "type": "event"
    },
    {
      "anonymous": false,
      "inputs": [
        {
          "indexed": false,
          "internalType": "string",
          "name": "winnermessage",
          "type": "string"
        }
      ],
      "name": "winner",
      "type": "event"
    },
    {
      "constant": true,
      "inputs": [],
      "name": "getBalance",
      "outputs": [
        {
          "internalType": "uint256",
          "name": "",
          "type": "uint256"
        }
      ],
      "payable": false,
      "stateMutability": "view",
      "type": "function"
    },
    {
      "constant": false,
      "inputs": [],
      "name": "fallback",
      "outputs": [],
      "payable": true,
      "stateMutability": "payable",
      "type": "function"
    },
    {
      "constant": false,
      "inputs": [
        {
          "internalType": "uint256",
          "name": "betamount",
          "type": "uint256"
        }
      ],
      "name": "betplay",
      "outputs": [],
      "payable": true,
      "stateMutability": "payable",
      "type": "function"
    }
  ],
  "bytecode": "0x608060405273ab8483f64d9c6d1ecf9b849ae677dd3315835cb2600160006101000a81548173ffffffffffffffffffffffffffffffffffffffff021916908373ffffffffffffffffffffffffffffffffffffffff1602179055506040518060600160405280603481526020016105bc6034913960029080519060200190610087929190610126565b506040518060400160405280601b81526020017f536f7272792c20796f75206c6f73742c2074727920616761696e210000000000815250600390805190602001906100d3929190610126565b503480156100e057600080fd5b50336000806101000a81548173ffffffffffffffffffffffffffffffffffffffff021916908373ffffffffffffffffffffffffffffffffffffffff1602179055506101cb565b828054600181600116156101000203166002900490600052602060002090601f016020900481019282601f1061016757805160ff1916838001178555610195565b82800160010185558215610195579182015b82811115610194578251825591602001919060010190610179565b5b5090506101a291906101a6565b5090565b6101c891905b808211156101c45760008160009055506001016101ac565b5090565b90565b6103e2806101da6000396000f3fe6080604052600436106100345760003560e01c806312065fe014610039578063552079dc1461006457806387f4300a1461006e575b600080fd5b34801561004557600080fd5b5061004e61009c565b6040518082815260200191505060405180910390f35b61006c6100bb565b005b61009a6004803603602081101561008457600080fd5b81019080803590602001909291905050506100bd565b005b60003073ffffffffffffffffffffffffffffffffffffffff1631905090565b565b806100c661009c565b101561013a576040517f08c379a000000000000000000000000000000000000000000000000000000000815260040180806020018281038252601b8152602001807f796f7520646f6e2774206861766520656e6f756768206d6f6e6579000000000081525060200191505060405180910390fd5b600061014461039b565b1415610274576000809054906101000a900473ffffffffffffffffffffffffffffffffffffffff1673ffffffffffffffffffffffffffffffffffffffff166108fc600283029081150290604051600060405180830381858888f193505050501580156101b4573d6000803e3d6000fd5b507f2836fc1569f2cf0eafa6bae027d7b993edbe7762df0ab247aecfcf12f412244d600260405180806020018281038252838181546001816001161561010002031660029004815260200191508054600181600116156101000203166002900480156102615780601f1061023657610100808354040283529160200191610261565b820191906000526020600020905b81548152906001019060200180831161024457829003601f168201915b50509250505060405180910390a1610398565b600160009054906101000a900473ffffffffffffffffffffffffffffffffffffffff1673ffffffffffffffffffffffffffffffffffffffff166108fc829081150290604051600060405180830381858888f193505050501580156102dc573d6000803e3d6000fd5b507f7a8b51c7c3b3dc492e1051d4098e886c28b9974f4f3fae324f5609fbb59a7dcc600360405180806020018281038252838181546001816001161561010002031660029004815260200191508054600181600116156101000203166002900480156103895780601f1061035e57610100808354040283529160200191610389565b820191906000526020600020905b81548152906001019060200180831161036c57829003601f168201915b50509250505060405180910390a15b50565b6000600242816103a757fe5b0690509056fea265627a7a7231582009c9f433fc8f2840f8bf45bd130841e125cfd46c5d888f8dead0657c7412038a64736f6c634300050c0032636f6e67726174756c6174696f6e2c20796f7520776f6e2c20796f7520646f75626c656420796f75722062657420616d6f756e74",
  "source": "pragma solidity 0.5.12;\n\n   contract flipcoin{\n\n   address payable player1;\n\n   constructor()public {\n\n   player1=msg.sender;\n\n   }\n   address payable player2 = 0xAb8483F64d9C6d1EcF9b849Ae677dD3315835cb2;\n   string winnermessage=\"congratulation, you won, you doubled your bet amount\";\n   string losermessage=\"Sorry, you lost, try again!\";\n    event winner(string  winnermessage);\n    event loser(string losermessage);\n\n   function random() private view returns(uint){\n\n       return now%2;\n   }\n\n   function getBalance()public view returns(uint){\n       return address(this).balance;\n   }\n\n   function fallback() external payable{\n\n   }\n\n    function betplay(uint betamount) public payable{\n      require(getBalance()>= betamount,\"you don't have enough money\");\n        if(random()==0){\n       player1.transfer(betamount*2);\n       emit winner(winnermessage);\n        }\n\n        else {\n\n        player2.transfer(betamount);\n        emit loser(losermessage);\n\n    }\n\n    }\n}\n",
  "sourcePath": "C:/Users/oussa/Desktop/FlipCoin/contracts/FlipCoin.sol",
  "compiler": {
    "name": "solc",
    "version": "0.5.12+commit.7709ece9.Emscripten.clang"
  },
  "schemaVersion": "3.0.16",
  "updatedAt": "2020-12-08T18:50:21.285Z",
  "devdoc": {
    "methods": {}
  },
  "userdoc": {
    "methods": {}
  }
}